1170415MASS203TEST1704120814AL                                                                                                                                                                                                                                 
200000123200903       170412I  0745200000047  9RFND               0074  4 SDFX                                                              000000000000                 000000000000                 000000000000                 0000              MAL      A
300000112340749999999999  90000               00000               00000               00000               00000               00000               0170404               88888888888888                                                                         
500000100000000000                   00000000000        00000000000        0000000000000000150000EUR200000000000         00000000000        00000000000        00000000000      0000000000000000      0000000000000000      0000000000000000  00000000000      
8000001376010[}O0000GB    00000030000      EUR2  CCAX3760                                                                         456480[}b00000eP   00000040000      EUR2  EPVI4564                                                                           
80000015193960000003484   00000050000      EUR2  MSCCCA5193                                                                                          00000010000      EUR2  CA                                                                                 
8000001                   00000020000      EUR2  MSCA                                                                                                00000000000                                                                                               
Z00000000008                                                                                                                                                                                                                                                   
