1071009MASS203PROD0710100100ZA       01                                                                                                                                                                                                                        
200000178200010       071009I  22051000693    2RFND               0220  5 CORNISH/MAUREEN MRS                                               000000000000                 000000000000                 000000000000                 0000ESAK          LES      A
300000100002205646546581  010002205646546582  00000               00000               00000               00000               00000               0020316                                                                                                      
500000100000000000           TA      00000015000        00000000000        0000000000000000015200USD200000000000         00000000000        00000000000        00000000000      0063500000000000      0000000000000000      0000000000000000  00000000000      
8000001197500062000221    00000010000      USD2  CCTP1975                                                                         197500062000221    00000005200      USD2  EPTP1975                                                                           
Z00000000006                                                                                                                                                                                                                                                   
