1170415MASS203TEST1704120814AA
200000178200010       170412I  0000000005     9RFND               0123  4 SDFX                                                              000000000000                 000000000000                 000000000000                 0000              MAA      R
300000112341239999999999  90000               00000               00000               00000               00000               00000               0170404               88888888888888                                                                         
500000100000000000                   00000000000        00000000000        0000000000000000150000ABC200000000000         00000000000        00000000000        00000000000      0000000000000000      0000000000000000      0000000000000000  00000000000      
8000001376010[}O0000GB    00000030000      ABC2  CCAX3760                                                                         456480[}b00000eP   00000040000      ABC2  EPVI4564                                                                           
80000015193960000003484   00000050000      ABC2  MSCCCA5193                                                                                          00000010000      ABC2  CA                                                                                 
8000001                   00000020000      ABC2  MSCA                                                                                                00000000000                                                                                               
H000001001Rejected: Non cancelled booking.             002                                             003                                             004                                             005                                                     
Z00000000009                                                                                                                                                                                                                                                   
